{
  "_format": "hh-sol-artifact-1",
  "contractName": "BobaNFT",
  "sourceName": "contracts/BobaNFT.sol",
  "abi": [
    {
      "inputs": [
        {
          "internalType": "string",
          "name": "name",
          "type": "string"
        },
        {
          "internalType": "string",
          "name": "symbol",
          "type": "string"
        },
        {
          "internalType": "uint256",
          "name": "_maxBobas",
          "type": "uint256"
        }
      ],
      "stateMutability": "nonpayable",
      "type": "constructor"
    },
    {
      "anonymous": false,
      "inputs": [
        {
          "indexed": true,
          "internalType": "address",
          "name": "owner",
          "type": "address"
        },
        {
          "indexed": true,
          "internalType": "address",
          "name": "approved",
          "type": "address"
        },
        {
          "indexed": true,
          "internalType": "uint256",
          "name": "tokenId",
          "type": "uint256"
        }
      ],
      "name": "Approval",
      "type": "event"
    },
    {
      "anonymous": false,
      "inputs": [
        {
          "indexed": true,
          "internalType": "address",
          "name": "owner",
          "type": "address"
        },
        {
          "indexed": true,
          "internalType": "address",
          "name": "operator",
          "type": "address"
        },
        {
          "indexed": false,
          "internalType": "bool",
          "name": "approved",
          "type": "bool"
        }
      ],
      "name": "ApprovalForAll",
      "type": "event"
    },
    {
      "anonymous": false,
      "inputs": [
        {
          "indexed": false,
          "internalType": "address",
          "name": "minter",
          "type": "address"
        },
        {
          "indexed": false,
          "internalType": "string",
          "name": "claimCode",
          "type": "string"
        }
      ],
      "name": "BobaClaimed",
      "type": "event"
    },
    {
      "anonymous": false,
      "inputs": [
        {
          "indexed": false,
          "internalType": "uint256",
          "name": "numberOfCodes",
          "type": "uint256"
        }
      ],
      "name": "CodeAdded",
      "type": "event"
    },
    {
      "anonymous": false,
      "inputs": [
        {
          "indexed": false,
          "internalType": "uint256",
          "name": "maxAvailable",
          "type": "uint256"
        }
      ],
      "name": "MaxMetaAvailableChanged",
      "type": "event"
    },
    {
      "anonymous": false,
      "inputs": [
        {
          "indexed": true,
          "internalType": "address",
          "name": "previousOwner",
          "type": "address"
        },
        {
          "indexed": true,
          "internalType": "address",
          "name": "newOwner",
          "type": "address"
        }
      ],
      "name": "OwnershipTransferred",
      "type": "event"
    },
    {
      "anonymous": false,
      "inputs": [
        {
          "indexed": false,
          "internalType": "address",
          "name": "minter",
          "type": "address"
        },
        {
          "indexed": false,
          "internalType": "uint256",
          "name": "amountOfBoba",
          "type": "uint256"
        },
        {
          "indexed": false,
          "internalType": "uint256",
          "name": "maxTokenId",
          "type": "uint256"
        }
      ],
      "name": "PublicMint",
      "type": "event"
    },
    {
      "anonymous": false,
      "inputs": [
        {
          "indexed": false,
          "internalType": "uint256",
          "name": "numberOfTokens",
          "type": "uint256"
        },
        {
          "indexed": false,
          "internalType": "uint256",
          "name": "maxTokenId",
          "type": "uint256"
        }
      ],
      "name": "ReservedBoba",
      "type": "event"
    },
    {
      "anonymous": false,
      "inputs": [
        {
          "indexed": true,
          "internalType": "address",
          "name": "from",
          "type": "address"
        },
        {
          "indexed": true,
          "internalType": "address",
          "name": "to",
          "type": "address"
        },
        {
          "indexed": true,
          "internalType": "uint256",
          "name": "tokenId",
          "type": "uint256"
        }
      ],
      "name": "Transfer",
      "type": "event"
    },
    {
      "inputs": [],
      "name": "BOBA_PROVENANCE",
      "outputs": [
        {
          "internalType": "string",
          "name": "",
          "type": "string"
        }
      ],
      "stateMutability": "view",
      "type": "function"
    },
    {
      "inputs": [],
      "name": "MAX_BOBAS",
      "outputs": [
        {
          "internalType": "uint256",
          "name": "",
          "type": "uint256"
        }
      ],
      "stateMutability": "view",
      "type": "function"
    },
    {
      "inputs": [
        {
          "internalType": "uint256",
          "name": "numberOfCodes",
          "type": "uint256"
        },
        {
          "internalType": "bytes32[]",
          "name": "codeHash",
          "type": "bytes32[]"
        }
      ],
      "name": "addClaimCode",
      "outputs": [],
      "stateMutability": "nonpayable",
      "type": "function"
    },
    {
      "inputs": [
        {
          "internalType": "address",
          "name": "to",
          "type": "address"
        },
        {
          "internalType": "uint256",
          "name": "tokenId",
          "type": "uint256"
        }
      ],
      "name": "approve",
      "outputs": [],
      "stateMutability": "nonpayable",
      "type": "function"
    },
    {
      "inputs": [
        {
          "internalType": "address",
          "name": "owner",
          "type": "address"
        }
      ],
      "name": "balanceOf",
      "outputs": [
        {
          "internalType": "uint256",
          "name": "",
          "type": "uint256"
        }
      ],
      "stateMutability": "view",
      "type": "function"
    },
    {
      "inputs": [],
      "name": "baseURI",
      "outputs": [
        {
          "internalType": "string",
          "name": "",
          "type": "string"
        }
      ],
      "stateMutability": "view",
      "type": "function"
    },
    {
      "inputs": [],
      "name": "bobaPrice",
      "outputs": [
        {
          "internalType": "uint256",
          "name": "",
          "type": "uint256"
        }
      ],
      "stateMutability": "view",
      "type": "function"
    },
    {
      "inputs": [
        {
          "internalType": "string",
          "name": "_claimCode",
          "type": "string"
        }
      ],
      "name": "claimBoba",
      "outputs": [],
      "stateMutability": "nonpayable",
      "type": "function"
    },
    {
      "inputs": [],
      "name": "claimCounter",
      "outputs": [
        {
          "internalType": "uint256",
          "name": "",
          "type": "uint256"
        }
      ],
      "stateMutability": "view",
      "type": "function"
    },
    {
      "inputs": [],
      "name": "flipSaleState",
      "outputs": [],
      "stateMutability": "nonpayable",
      "type": "function"
    },
    {
      "inputs": [
        {
          "internalType": "uint256",
          "name": "tokenId",
          "type": "uint256"
        }
      ],
      "name": "getApproved",
      "outputs": [
        {
          "internalType": "address",
          "name": "",
          "type": "address"
        }
      ],
      "stateMutability": "view",
      "type": "function"
    },
    {
      "inputs": [
        {
          "internalType": "string",
          "name": "code",
          "type": "string"
        }
      ],
      "name": "getClaimHash",
      "outputs": [
        {
          "internalType": "bytes32",
          "name": "",
          "type": "bytes32"
        }
      ],
      "stateMutability": "pure",
      "type": "function"
    },
    {
      "inputs": [
        {
          "internalType": "address",
          "name": "owner",
          "type": "address"
        },
        {
          "internalType": "address",
          "name": "operator",
          "type": "address"
        }
      ],
      "name": "isApprovedForAll",
      "outputs": [
        {
          "internalType": "bool",
          "name": "",
          "type": "bool"
        }
      ],
      "stateMutability": "view",
      "type": "function"
    },
    {
      "inputs": [],
      "name": "maxMintAmount",
      "outputs": [
        {
          "internalType": "uint256",
          "name": "",
          "type": "uint256"
        }
      ],
      "stateMutability": "view",
      "type": "function"
    },
    {
      "inputs": [
        {
          "internalType": "uint256",
          "name": "numberOfTokens",
          "type": "uint256"
        },
        {
          "internalType": "uint256",
          "name": "amountInWETH",
          "type": "uint256"
        }
      ],
      "name": "mintBoba",
      "outputs": [],
      "stateMutability": "payable",
      "type": "function"
    },
    {
      "inputs": [],
      "name": "name",
      "outputs": [
        {
          "internalType": "string",
          "name": "",
          "type": "string"
        }
      ],
      "stateMutability": "view",
      "type": "function"
    },
    {
      "inputs": [],
      "name": "owner",
      "outputs": [
        {
          "internalType": "address",
          "name": "",
          "type": "address"
        }
      ],
      "stateMutability": "view",
      "type": "function"
    },
    {
      "inputs": [
        {
          "internalType": "uint256",
          "name": "tokenId",
          "type": "uint256"
        }
      ],
      "name": "ownerOf",
      "outputs": [
        {
          "internalType": "address",
          "name": "",
          "type": "address"
        }
      ],
      "stateMutability": "view",
      "type": "function"
    },
    {
      "inputs": [],
      "name": "renounceOwnership",
      "outputs": [],
      "stateMutability": "nonpayable",
      "type": "function"
    },
    {
      "inputs": [
        {
          "internalType": "uint256",
          "name": "numberOfTokens",
          "type": "uint256"
        }
      ],
      "name": "reserveBobas",
      "outputs": [],
      "stateMutability": "nonpayable",
      "type": "function"
    },
    {
      "inputs": [
        {
          "internalType": "address",
          "name": "from",
          "type": "address"
        },
        {
          "internalType": "address",
          "name": "to",
          "type": "address"
        },
        {
          "internalType": "uint256",
          "name": "tokenId",
          "type": "uint256"
        }
      ],
      "name": "safeTransferFrom",
      "outputs": [],
      "stateMutability": "nonpayable",
      "type": "function"
    },
    {
      "inputs": [
        {
          "internalType": "address",
          "name": "from",
          "type": "address"
        },
        {
          "internalType": "address",
          "name": "to",
          "type": "address"
        },
        {
          "internalType": "uint256",
          "name": "tokenId",
          "type": "uint256"
        },
        {
          "internalType": "bytes",
          "name": "_data",
          "type": "bytes"
        }
      ],
      "name": "safeTransferFrom",
      "outputs": [],
      "stateMutability": "nonpayable",
      "type": "function"
    },
    {
      "inputs": [],
      "name": "saleIsActive",
      "outputs": [
        {
          "internalType": "bool",
          "name": "",
          "type": "bool"
        }
      ],
      "stateMutability": "view",
      "type": "function"
    },
    {
      "inputs": [
        {
          "internalType": "address",
          "name": "operator",
          "type": "address"
        },
        {
          "internalType": "bool",
          "name": "approved",
          "type": "bool"
        }
      ],
      "name": "setApprovalForAll",
      "outputs": [],
      "stateMutability": "nonpayable",
      "type": "function"
    },
    {
      "inputs": [
        {
          "internalType": "string",
          "name": "_baseURI",
          "type": "string"
        }
      ],
      "name": "setBaseURI",
      "outputs": [],
      "stateMutability": "nonpayable",
      "type": "function"
    },
    {
      "inputs": [
        {
          "internalType": "uint256",
          "name": "_bobaPrice",
          "type": "uint256"
        }
      ],
      "name": "setBobaPrice",
      "outputs": [],
      "stateMutability": "nonpayable",
      "type": "function"
    },
    {
      "inputs": [
        {
          "internalType": "uint256",
          "name": "_maxMintAmount",
          "type": "uint256"
        }
      ],
      "name": "setMaxMintAmount",
      "outputs": [],
      "stateMutability": "nonpayable",
      "type": "function"
    },
    {
      "inputs": [
        {
          "internalType": "uint256",
          "name": "index",
          "type": "uint256"
        }
      ],
      "name": "setMetaAvailableCount",
      "outputs": [],
      "stateMutability": "nonpayable",
      "type": "function"
    },
    {
      "inputs": [
        {
          "internalType": "string",
          "name": "_provenanceHash",
          "type": "string"
        }
      ],
      "name": "setProvenanceHash",
      "outputs": [],
      "stateMutability": "nonpayable",
      "type": "function"
    },
    {
      "inputs": [
        {
          "internalType": "string",
          "name": "_baseURI",
          "type": "string"
        }
      ],
      "name": "setRealBaseURI",
      "outputs": [],
      "stateMutability": "nonpayable",
      "type": "function"
    },
    {
      "inputs": [
        {
          "internalType": "bytes4",
          "name": "interfaceId",
          "type": "bytes4"
        }
      ],
      "name": "supportsInterface",
      "outputs": [
        {
          "internalType": "bool",
          "name": "",
          "type": "bool"
        }
      ],
      "stateMutability": "view",
      "type": "function"
    },
    {
      "inputs": [],
      "name": "symbol",
      "outputs": [
        {
          "internalType": "string",
          "name": "",
          "type": "string"
        }
      ],
      "stateMutability": "view",
      "type": "function"
    },
    {
      "inputs": [
        {
          "internalType": "uint256",
          "name": "index",
          "type": "uint256"
        }
      ],
      "name": "tokenByIndex",
      "outputs": [
        {
          "internalType": "uint256",
          "name": "",
          "type": "uint256"
        }
      ],
      "stateMutability": "view",
      "type": "function"
    },
    {
      "inputs": [
        {
          "internalType": "address",
          "name": "owner",
          "type": "address"
        },
        {
          "internalType": "uint256",
          "name": "index",
          "type": "uint256"
        }
      ],
      "name": "tokenOfOwnerByIndex",
      "outputs": [
        {
          "internalType": "uint256",
          "name": "",
          "type": "uint256"
        }
      ],
      "stateMutability": "view",
      "type": "function"
    },
    {
      "inputs": [
        {
          "internalType": "uint256",
          "name": "tokenId",
          "type": "uint256"
        }
      ],
      "name": "tokenURI",
      "outputs": [
        {
          "internalType": "string",
          "name": "",
          "type": "string"
        }
      ],
      "stateMutability": "view",
      "type": "function"
    },
    {
      "inputs": [
        {
          "internalType": "uint256",
          "name": "tokenId",
          "type": "uint256"
        }
      ],
      "name": "tokenUri",
      "outputs": [
        {
          "internalType": "string",
          "name": "",
          "type": "string"
        }
      ],
      "stateMutability": "view",
      "type": "function"
    },
    {
      "inputs": [],
      "name": "totalSupply",
      "outputs": [
        {
          "internalType": "uint256",
          "name": "",
          "type": "uint256"
        }
      ],
      "stateMutability": "view",
      "type": "function"
    },
    {
      "inputs": [
        {
          "internalType": "address",
          "name": "from",
          "type": "address"
        },
        {
          "internalType": "address",
          "name": "to",
          "type": "address"
        },
        {
          "internalType": "uint256",
          "name": "tokenId",
          "type": "uint256"
        }
      ],
      "name": "transferFrom",
      "outputs": [],
      "stateMutability": "nonpayable",
      "type": "function"
    },
    {
      "inputs": [
        {
          "internalType": "address",
          "name": "newOwner",
          "type": "address"
        }
      ],
      "name": "transferOwnership",
      "outputs": [],
      "stateMutability": "nonpayable",
      "type": "function"
    },
    {
      "inputs": [
        {
          "internalType": "address",
          "name": "addr",
          "type": "address"
        }
      ],
      "name": "withdraw",
      "outputs": [],
      "stateMutability": "nonpayable",
      "type": "function"
    }
  ],
  "bytecode": "0x608060405260405180602001604052806000815250600b90805190602001906200002b92919062000578565b50612710600c6200003b62000644565b50506000600d6200004b62000644565b505066038d7ea4c68000600e6200006162000644565b50506003600f6200007162000644565b5050600060106200008162000644565b50506000601360006101000a8162000098620006ab565b8160ff02191690831515021790620000af62000644565b505050348015620000ca57600080620000c762000710565b50505b50604051620062593803806200625983398181016040526060811015620000fb57600080620000f862000710565b50505b810190808051604051939291908464010000000082111562000127576000806200012462000710565b50505b8382019150602082018581111562000149576000806200014662000710565b50505b825186600182028301116401000000008211171562000172576000806200016f62000710565b50505b8083526020830192505050908051906020019080838360005b83811015620001a85780820151818401526020810190506200018b565b50505050905090810190601f168015620001d65780820380516001836020036101000a031916815260200191505b506040526020018051604051939291908464010000000082111562000205576000806200020262000710565b50505b8382019150602082018581111562000227576000806200022462000710565b50505b825186600182028301116401000000008211171562000250576000806200024d62000710565b50505b8083526020830192505050908051906020019080838360005b838110156200028657808201518184015260208101905062000269565b50505050905090810190601f168015620002b45780820380516001836020036101000a031916815260200191505b50604052602001805190602001909291905050508282620002e26301ffc9a760e01b6200043e60201b60201c565b8160069080519060200190620002fa92919062000578565b5080600790805190602001906200031392919062000578565b506200032c6380ac58cd60e01b6200043e60201b60201c565b62000344635b5e139f60e01b6200043e60201b60201c565b6200035c63780e9d6360e01b6200043e60201b60201c565b50506000620003706200056660201b60201c565b905080600a60006101000a8162000386620006ab565b8173ffffffffffffffffffffffffffffffffffffffff021916908373ffffffffffffffffffffffffffffffffffffffff16021790620003c462000644565b5050508073ffffffffffffffffffffffffffffffffffffffff16600073ffffffffffffffffffffffffffffffffffffffff167f8be0079c531659141344cd1fd0a4f28419497f9722a3daafe3b4186f6b6457e060405160405180910390a35080600c81906200043262000644565b50505050505062000809565b63ffffffff60e01b817bffffffffffffffffffffffffffffffffffffffffffffffffffffffff19161415620004e6576040517f08c379a000000000000000000000000000000000000000000000000000000000815260040180806020018281038252601c8152602001807f4552433136353a20696e76616c696420696e746572666163652069640000000081525060200191505060405180910390620004e362000710565b50505b6001600080837bffffffffffffffffffffffffffffffffffffffffffffffffffffffff19167bffffffffffffffffffffffffffffffffffffffffffffffffffffffff1916815260200190815260200160002060006101000a8162000549620006ab565b8160ff021916908315150217906200056062000644565b50505050565b60005a6200057362000780565b905090565b828062000584620006ab565b600181600116156101000203166002900490600052602060002090601f016020900481019282620005c457600085620005bc62000644565b505062000631565b82601f10620005ea57805160ff19168380011785620005e262000644565b505062000631565b82800160010185620005fb62000644565b5050821562000631579182015b8281111562000630578251826200061e62000644565b50509160200191906001019062000608565b5b509050620006409190620007df565b5090565b6322bd64c0598160e01b8152836004820152846024820152600081604483336000905af158600e01573d6000803e3d6000fd5b3d6001141558600a015760016000f35b60005b6040811015620006a6576000818301526020810190506200068a565b505050565b6303daa959598160e01b8152836004820152602081602483336000905af158600e01573d6000803e3d6000fd5b3d6001141558600a015760016000f35b8051935060005b60408110156200070b57600081830152602081019050620006ef565b505050565b632a2a7adb598160e01b8152600481016020815285602082015260005b868110156200074d5780860151816040840101526020810190506200072d565b506020828760640184336000905af158600e01573d6000803e3d6000fd5b3d6001141558600a015760016000f35b505050565b6373509064598160e01b8152602081600483336000905af158600e01573d6000803e3d6000fd5b3d6001141558600a015760016000f35b8051935060005b6040811015620007da57600081830152602081019050620007be565b505050565b5b808211156200080557600081600090620007f962000644565b505050600101620007e0565b5090565b615a4080620008196000396000f3fe60806040526004361061023b5760003560e01c80636352211e1161012e57806395d89b41116100ab578063cb7956051161006f578063cb795605146114f5578063e985e9c514611542578063eb8d2444146115db578063f2fde38b14611611578063fbedc037146116745761023b565b806395d89b411461114f578063a22cb465146111e8578063b88d4fde14611257578063c4a6e4b714611396578063c87b56dd1461142f5761023b565b8063818898b9116100f2578063818898b914610f42578063850f84dd14610f8f578063859b0a4414610fc35780638da5cb5b146110b85780638e0589a5146111025761023b565b80636352211e14610ca65780636c0360eb14610d1d57806370a0823114610db6578063715018a614610e2d5780637370b13f14610e4d5761023b565b8063239c70ae116101bc5780634efa8f17116101805780634efa8f17146109b05780634f6ccce7146109e457806351cff8d914610a455780635413b65a14610aa857806355f804b314610bb15761023b565b8063239c70ae146107c157806323b872dd146107f55780632f745c591461088257806334918dfd1461090357806342842e0e146109235761023b565b8063095ea7b311610203578063095ea7b31461052457806309ee565a1461059157806310969523146105d25780631675f455146106c757806318160ddd1461078d5761023b565b806301ffc9a71461024957806306ef90b1146102cb57806306fdde03146103c7578063081812fc14610460578063088a4ed0146104d7575b6000806102466152d9565b50505b34801561025e5760008061025b6152d9565b50505b506102b36004803603602081101561027e5760008061027b6152d9565b50505b8101908080357bffffffffffffffffffffffffffffffffffffffffffffffffffffffff191690602001909291905050506116a8565b60405180821515815260200191505060405180910390f35b3480156102e0576000806102dd6152d9565b50505b506103c560048036036040811015610300576000806102fd6152d9565b50505b8101908080359060200190929190803590602001906401000000008111156103305760008061032d6152d9565b50505b82018360208201111561034b576000806103486152d9565b50505b80359060200191846020830284011164010000000083111715610376576000806103736152d9565b50505b919080806020026020016040519081016040528093929190818152602001838360200280828437600081840152601f19601f820116905080830192505050505050509192919290505050611716565b005b3480156103dc576000806103d96152d9565b50505b506103e561185d565b6040518080602001828103825283818151815260200191508051906020019080838360005b8381101561042557808201518184015260208101905061040a565b50505050905090810190601f1680156104525780820380516001836020036101000a031916815260200191505b509250505060405180910390f35b348015610475576000806104726152d9565b50505b506104ab60048036036020811015610495576000806104926152d9565b50505b810190808035906020019092919050505061191b565b604051808273ffffffffffffffffffffffffffffffffffffffff16815260200191505060405180910390f35b3480156104ec576000806104e96152d9565b50505b506105226004803603602081101561050c576000806105096152d9565b50505b81019080803590602001909291905050506119c6565b005b348015610539576000806105366152d9565b50505b5061058f60048036036040811015610559576000806105566152d9565b50505b81019080803573ffffffffffffffffffffffffffffffffffffffff16906020019092919080359060200190929190505050611b50565b005b6105d0600480360360408110156105b0576000806105ad6152d9565b50505b810190808035906020019092919080359060200190929190505050611ca6565b005b3480156105e7576000806105e46152d9565b50505b506106c560048036036020811015610607576000806106046152d9565b50505b810190808035906020019064010000000081111561062d5760008061062a6152d9565b50505b820183602082011115610648576000806106456152d9565b50505b80359060200191846001830284011164010000000083111715610673576000806106706152d9565b50505b91908080601f016020809104026020016040519081016040528093929190818152602001838380828437600081840152601f19601f820116905080830192505050505050509192919290505050612131565b005b3480156106dc576000806106d96152d9565b50505b50610712600480360360208110156106fc576000806106f96152d9565b50505b8101908080359060200190929190505050612203565b6040518080602001828103825283818151815260200191508051906020019080838360005b83811015610752578082015181840152602081019050610737565b50505050905090810190601f16801561077f5780820380516001836020036101000a031916815260200191505b509250505060405180910390f35b3480156107a25760008061079f6152d9565b50505b506107ab6122be565b6040518082815260200191505060405180910390f35b3480156107d6576000806107d36152d9565b50505b506107df6122cf565b6040518082815260200191505060405180910390f35b34801561080a576000806108076152d9565b50505b506108806004803603606081101561082a576000806108276152d9565b50505b81019080803573ffffffffffffffffffffffffffffffffffffffff169060200190929190803573ffffffffffffffffffffffffffffffffffffffff169060200190929190803590602001909291905050506122dc565b005b348015610897576000806108946152d9565b50505b506108ed600480360360408110156108b7576000806108b46152d9565b50505b81019080803573ffffffffffffffffffffffffffffffffffffffff1690602001909291908035906020019092919050505061235b565b6040518082815260200191505060405180910390f35b348015610918576000806109156152d9565b50505b506109216123b6565b005b348015610938576000806109356152d9565b50505b506109ae60048036036060811015610958576000806109556152d9565b50505b81019080803573ffffffffffffffffffffffffffffffffffffffff169060200190929190803573ffffffffffffffffffffffffffffffffffffffff169060200190929190803590602001909291905050506124b1565b005b3480156109c5576000806109c26152d9565b50505b506109ce6124d1565b6040518082815260200191505060405180910390f35b3480156109f9576000806109f66152d9565b50505b50610a2f60048036036020811015610a1957600080610a166152d9565b50505b81019080803590602001909291905050506124de565b6040518082815260200191505060405180910390f35b348015610a5a57600080610a576152d9565b50505b50610aa660048036036020811015610a7a57600080610a776152d9565b50505b81019080803573ffffffffffffffffffffffffffffffffffffffff169060200190929190505050612501565b005b348015610abd57600080610aba6152d9565b50505b50610b9b60048036036020811015610add57600080610ada6152d9565b50505b8101908080359060200190640100000000811115610b0357600080610b006152d9565b50505b820183602082011115610b1e57600080610b1b6152d9565b50505b80359060200191846001830284011164010000000083111715610b4957600080610b466152d9565b50505b91908080601f016020809104026020016040519081016040528093929190818152602001838380828437600081840152601f19601f8201169050808301925050505050505091929192905050506125bc565b6040518082815260200191505060405180910390f35b348015610bc657600080610bc36152d9565b50505b50610ca460048036036020811015610be657600080610be36152d9565b50505b8101908080359060200190640100000000811115610c0c57600080610c096152d9565b50505b820183602082011115610c2757600080610c246152d9565b50505b80359060200191846001830284011164010000000083111715610c5257600080610c4f6152d9565b50505b91908080601f016020809104026020016040519081016040528093929190818152602001838380828437600081840152601f19601f820116905080830192505050505050509192919290505050612637565b005b348015610cbb57600080610cb86152d9565b50505b50610cf160048036036020811015610cdb57600080610cd86152d9565b50505b81019080803590602001909291905050506126fb565b604051808273ffffffffffffffffffffffffffffffffffffffff16815260200191505060405180910390f35b348015610d3257600080610d2f6152d9565b50505b50610d3b612732565b6040518080602001828103825283818151815260200191508051906020019080838360005b83811015610d7b578082015181840152602081019050610d60565b50505050905090810190601f168015610da85780820380516001836020036101000a031916815260200191505b509250505060405180910390f35b348015610dcb57600080610dc86152d9565b50505b50610e1760048036036020811015610deb57600080610de86152d9565b50505b81019080803573ffffffffffffffffffffffffffffffffffffffff1690602001909291905050506127f0565b6040518082815260200191505060405180910390f35b348015610e4257600080610e3f6152d9565b50505b50610e4b6128ce565b005b348015610e6257600080610e5f6152d9565b50505b50610f4060048036036020811015610e8257600080610e7f6152d9565b50505b8101908080359060200190640100000000811115610ea857600080610ea56152d9565b50505b820183602082011115610ec357600080610ec06152d9565b50505b80359060200191846001830284011164010000000083111715610eee57600080610eeb6152d9565b50505b91908080601f016020809104026020016040519081016040528093929190818152602001838380828437600081840152601f19601f820116905080830192505050505050509192919290505050612a5e565b005b348015610f5757600080610f546152d9565b50505b50610f8d60048036036020811015610f7757600080610f746152d9565b50505b8101908080359060200190929190505050612b30565b005b348015610fa457600080610fa16152d9565b50505b50610fad612bfb565b6040518082815260200191505060405180910390f35b348015610fd857600080610fd56152d9565b50505b506110b660048036036020811015610ff857600080610ff56152d9565b50505b810190808035906020019064010000000081111561101e5760008061101b6152d9565b50505b820183602082011115611039576000806110366152d9565b50505b80359060200191846001830284011164010000000083111715611064576000806110616152d9565b50505b91908080601f016020809104026020016040519081016040528093929190818152602001838380828437600081840152601f19601f820116905080830192505050505050509192919290505050612c08565b005b3480156110cd576000806110ca6152d9565b50505b506110d6612e97565b604051808273ffffffffffffffffffffffffffffffffffffffff16815260200191505060405180910390f35b348015611117576000806111146152d9565b50505b5061114d60048036036020811015611137576000806111346152d9565b50505b8101908080359060200190929190505050612ec8565b005b348015611164576000806111616152d9565b50505b5061116d613084565b6040518080602001828103825283818151815260200191508051906020019080838360005b838110156111ad578082015181840152602081019050611192565b50505050905090810190601f1680156111da5780820380516001836020036101000a031916815260200191505b509250505060405180910390f35b3480156111fd576000806111fa6152d9565b50505b506112556004803603604081101561121d5760008061121a6152d9565b50505b81019080803573ffffffffffffffffffffffffffffffffffffffff169060200190929190803515159060200190929190505050613142565b005b34801561126c576000806112696152d9565b50505b506113946004803603608081101561128c576000806112896152d9565b50505b81019080803573ffffffffffffffffffffffffffffffffffffffff169060200190929190803573ffffffffffffffffffffffffffffffffffffffff16906020019092919080359060200190929190803590602001906401000000008111156112fc576000806112f96152d9565b50505b820183602082011115611317576000806113146152d9565b50505b803590602001918460018302840111640100000000831117156113425760008061133f6152d9565b50505b91908080601f016020809104026020016040519081016040528093929190818152602001838380828437600081840152601f19601f820116905080830192505050505050509192919290505050613311565b005b3480156113ab576000806113a86152d9565b50505b506113b4613392565b6040518080602001828103825283818151815260200191508051906020019080838360005b838110156113f45780820151818401526020810190506113d9565b50505050905090810190601f1680156114215780820380516001836020036101000a031916815260200191505b509250505060405180910390f35b348015611444576000806114416152d9565b50505b5061147a60048036036020811015611464576000806114616152d9565b50505b810190808035906020019092919050505061344c565b6040518080602001828103825283818151815260200191508051906020019080838360005b838110156114ba57808201518184015260208101905061149f565b50505050905090810190601f1680156114e75780820380516001836020036101000a031916815260200191505b509250505060405180910390f35b34801561150a576000806115076152d9565b50505b506115406004803603602081101561152a576000806115276152d9565b50505b8101908080359060200190929190505050613742565b005b348015611557576000806115546152d9565b50505b506115c360048036036040811015611577576000806115746152d9565b50505b81019080803573ffffffffffffffffffffffffffffffffffffffff169060200190929190803573ffffffffffffffffffffffffffffffffffffffff169060200190929190505050613904565b60405180821515815260200191505060405180910390f35b3480156115f0576000806115ed6152d9565b50505b506115f961399f565b60405180821515815260200191505060405180910390f35b348015611626576000806116236152d9565b50505b5061167260048036036020811015611646576000806116436152d9565b50505b81019080803573ffffffffffffffffffffffffffffffffffffffff1690602001909291905050506139b9565b005b348015611689576000806116866152d9565b50505b50611692613bd7565b6040518082815260200191505060405180910390f35b6000806000837bffffffffffffffffffffffffffffffffffffffffffffffffffffffff19167bffffffffffffffffffffffffffffffffffffffffffffffffffffffff19168152602001908152602001600020600090611705615347565b906101000a900460ff169050919050565b61171e613be4565b73ffffffffffffffffffffffffffffffffffffffff1661173c612e97565b73ffffffffffffffffffffffffffffffffffffffff16146117ce576040517f08c379a00000000000000000000000000000000000000000000000000000000081526004018080602001828103825260208152602001807f4f776e61626c653a2063616c6c6572206973206e6f7420746865206f776e6572815250602001915050604051809103906117cb6152d9565b50505b60005b828110156118215760008282815181106117e757fe5b6020026020010151905060016012600083815260200190815260200160002081906118106153aa565b5050505080806001019150506117d1565b507fd5cdf8d9cbb16be171dc2bc7b885759e2582c8b4416e3f5f7b894b07f1891dd0826040518082815260200191505060405180910390a15050565b606060068061186a615347565b600181600116156101000203166002900480601f016020809104026020016040519081016040528092919081815260200182806118a5615347565b600181600116156101000203166002900480156119115780601f106118df5761010080836118d1615347565b040283529160200191611911565b820191906000526020600020905b816118f6615347565b815290600101906020018083116118ed57829003601f168201915b5050505050905090565b600061192682613bf4565b611984576040517f08c379a000000000000000000000000000000000000000000000000000000000815260040180806020018281038252602c8152602001806158e8602c9139604001915050604051809103906119816152d9565b50505b600460008381526020019081526020016000206000906119a2615347565b906101000a900473ffffffffffffffffffffffffffffffffffffffff169050919050565b6119ce613be4565b73ffffffffffffffffffffffffffffffffffffffff166119ec612e97565b73ffffffffffffffffffffffffffffffffffffffff1614611a7e576040517f08c379a00000000000000000000000000000000000000000000000000000000081526004018080602001828103825260208152602001807f4f776e61626c653a2063616c6c6572206973206e6f7420746865206f776e657281525060200191505060405180910390611a7b6152d9565b50505b600c611a88615347565b811115611b06576040517f08c379a00000000000000000000000000000000000000000000000000000000081526004018080602001828103825260198152602001807f416d6f756e742065786365656473204d41585f535550504c590000000000000081525060200191505060405180910390611b036152d9565b50505b80600f8190611b136153aa565b5050507f0fb8845e4d741ae1ff977f6966f7f8ad8172bdbc12c7c025b3fcb051c8346d0f816040518082815260200191505060405180910390a150565b6000611b5b826126fb565b90508073ffffffffffffffffffffffffffffffffffffffff168373ffffffffffffffffffffffffffffffffffffffff161415611beb576040517f08c379a000000000000000000000000000000000000000000000000000000000815260040180806020018281038252602181526020018061596c6021913960400191505060405180910390611be86152d9565b50505b8073ffffffffffffffffffffffffffffffffffffffff16611c0a613be4565b73ffffffffffffffffffffffffffffffffffffffff161480611c395750611c3881611c33613be4565b613904565b5b611c97576040517f08c379a000000000000000000000000000000000000000000000000000000000815260040180806020018281038252603881526020018061581a6038913960400191505060405180910390611c946152d9565b50505b611ca18383613c11565b505050565b6013600090611cb3615347565b906101000a900460ff16611d38576040517f08c379a00000000000000000000000000000000000000000000000000000000081526004018080602001828103825260208152602001807f53616c65206d7573742062652061637469766520746f206d696e7420426f626181525060200191505060405180910390611d356152d9565b50505b6000611d5683600e611d48615347565b613cda90919063ffffffff16565b905080821015611dba576040517f08c379a00000000000000000000000000000000000000000000000000000000081526004018080602001828103825260288152602001806157c66028913960400191505060405180910390611db76152d9565b50505b600f611dc4615347565b831115611e25576040517f08c379a000000000000000000000000000000000000000000000000000000000815260040180806020018281038252602e8152602001806159e1602e913960400191505060405180910390611e226152d9565b50505b600c611e2f615347565b611e4984611e3b6122be565b613d6990919063ffffffff16565b1115611ea9576040517f08c379a000000000000000000000000000000000000000000000000000000000815260040180806020018281038252602981526020018061598d6029913960400191505060405180910390611ea66152d9565b50505b6011600090611eb6615347565b906101000a900473ffffffffffffffffffffffffffffffffffffffff1673ffffffffffffffffffffffffffffffffffffffff1663a9059cbb5a63996d79a5598160e01b8152602081600483336000905af158600e01573d6000803e3d6000fd5b3d6001141558600a015760016000f35b8051925060005b6040811015611f4757600081830152602081019050611f2d565b505050836040518363ffffffff1660e01b8152600401808373ffffffffffffffffffffffffffffffffffffffff1681526020018281526020019250505060206040518083038160008780611f9961540f565b158015611fae57600080611fab6152d9565b50505b505a611fb8615472565b505050505050158015611fd8573d6000803e3d6000611fd56152d9565b50505b505050506040513d6020811015611ff757600080611ff46152d9565b50505b8101908080519060200190929190505050156120665760005b8381101561206057600060016120246122be565b019050600c612031615347565b6120396122be565b1015612052576120515a61204b615572565b82613dfa565b5b508080600101915050612010565b506120c0565b6040517f08c379a000000000000000000000000000000000000000000000000000000000815260040180806020018281038252602b8152602001806159b6602b9139604001915050604051809103906120bd6152d9565b50505b7f819f7e30541f2ed7e36c92ce039f5eb2d66b7dc094b33f416910e8fde56b80dc5a6120ea615572565b846120f36122be565b604051808473ffffffffffffffffffffffffffffffffffffffff168152602001838152602001828152602001935050505060405180910390a1505050565b612139613be4565b73ffffffffffffffffffffffffffffffffffffffff16612157612e97565b73ffffffffffffffffffffffffffffffffffffffff16146121e9576040517f08c379a00000000000000000000000000000000000000000000000000000000081526004018080602001828103825260208152602001807f4f776e61626c653a2063616c6c6572206973206e6f7420746865206f776e6572815250602001915050604051809103906121e66152d9565b50505b80600b90805190602001906121ff9291906155cf565b5050565b6060601061220f615347565b8210156122ae5760148260405160200180838061222a615347565b6001816001161561010002031660029004801561228c5780601f10612263576101008083612256615347565b040283529182019161228c565b820191906000526020600020905b8161227a615347565b81529060010190602001808311612271575b50508281526020019250505060405160208183030381529060405290506122b9565b6122b6612732565b90505b919050565b60006122ca6002613e18565b905090565b600f6122d9615347565b81565b6122ed6122e7613be4565b82613e2d565b61234b576040517f08c379a0000000000000000000000000000000000000000000000000000000008152600401808060200182810382526031815260200180615a0f60319139604001915050604051809103906123486152d9565b50505b612356838383613f2a565b505050565b60006123ae82600160008673ffffffffffffffffffffffffffffffffffffffff1673ffffffffffffffffffffffffffffffffffffffff16815260200190815260200160002061417f90919063ffffffff16565b905092915050565b6123be613be4565b73ffffffffffffffffffffffffffffffffffffffff166123dc612e97565b73ffffffffffffffffffffffffffffffffffffffff161461246e576040517f08c379a00000000000000000000000000000000000000000000000000000000081526004018080602001828103825260208152602001807f4f776e61626c653a2063616c6c6572206973206e6f7420746865206f776e65728152506020019150506040518091039061246b6152d9565b50505b601360009061247b615347565b906101000a900460ff1615601360006101000a81612497615347565b8160ff021916908315150217906124ac6153aa565b505050565b6124cc83838360405180602001604052806000815250613311565b505050565b600d6124db615347565b81565b6000806124f583600261419990919063ffffffff16565b50905080915050919050565b612509613be4565b73ffffffffffffffffffffffffffffffffffffffff16612527612e97565b73ffffffffffffffffffffffffffffffffffffffff16146125b9576040517f08c379a00000000000000000000000000000000000000000000000000000000081526004018080602001828103825260208152602001807f4f776e61626c653a2063616c6c6572206973206e6f7420746865206f776e6572815250602001915050604051809103906125b66152d9565b50505b50565b6000816040516020018082805190602001908083835b602083106125f557805182526020820191506020810190506020830392506125d2565b6001836020036101000a038019825116818451168082178552505050505050905001915050604051602081830303815290604052805190602001209050919050565b61263f613be4565b73ffffffffffffffffffffffffffffffffffffffff1661265d612e97565b73ffffffffffffffffffffffffffffffffffffffff16146126ef576040517f08c379a00000000000000000000000000000000000000000000000000000000081526004018080602001828103825260208152602001807f4f776e61626c653a2063616c6c6572206973206e6f7420746865206f776e6572815250602001915050604051809103906126ec6152d9565b50505b6126f8816141c5565b50565b600061272b8260405180606001604052806029815260200161587c6029913960026141df9092919063ffffffff16565b9050919050565b606060098061273f615347565b600181600116156101000203166002900480601f0160208091040260200160405190810160405280929190818152602001828061277a615347565b600181600116156101000203166002900480156127e65780601f106127b45761010080836127a6615347565b0402835291602001916127e6565b820191906000526020600020905b816127cb615347565b815290600101906020018083116127c257829003601f168201915b5050505050905090565b60008073ffffffffffffffffffffffffffffffffffffffff168273ffffffffffffffffffffffffffffffffffffffff161415612880576040517f08c379a000000000000000000000000000000000000000000000000000000000815260040180806020018281038252602a815260200180615852602a91396040019150506040518091039061287d6152d9565b50505b6128c7600160008473ffffffffffffffffffffffffffffffffffffffff1673ffffffffffffffffffffffffffffffffffffffff1681526020019081526020016000206141fe565b9050919050565b6128d6613be4565b73ffffffffffffffffffffffffffffffffffffffff166128f4612e97565b73ffffffffffffffffffffffffffffffffffffffff1614612986576040517f08c379a00000000000000000000000000000000000000000000000000000000081526004018080602001828103825260208152602001807f4f776e61626c653a2063616c6c6572206973206e6f7420746865206f776e6572815250602001915050604051809103906129836152d9565b50505b600073ffffffffffffffffffffffffffffffffffffffff16600a6000906129ab615347565b906101000a900473ffffffffffffffffffffffffffffffffffffffff1673ffffffffffffffffffffffffffffffffffffffff167f8be0079c531659141344cd1fd0a4f28419497f9722a3daafe3b4186f6b6457e060405160405180910390a36000600a60006101000a81612a1d615347565b8173ffffffffffffffffffffffffffffffffffffffff021916908373ffffffffffffffffffffffffffffffffffffffff16021790612a596153aa565b505050565b612a66613be4565b73ffffffffffffffffffffffffffffffffffffffff16612a84612e97565b73ffffffffffffffffffffffffffffffffffffffff1614612b16576040517f08c379a00000000000000000000000000000000000000000000000000000000081526004018080602001828103825260208152602001807f4f776e61626c653a2063616c6c6572206973206e6f7420746865206f776e657281525060200191505060405180910390612b136152d9565b50505b8060149080519060200190612b2c9291906155cf565b5050565b612b38613be4565b73ffffffffffffffffffffffffffffffffffffffff16612b56612e97565b73ffffffffffffffffffffffffffffffffffffffff1614612be8576040517f08c379a00000000000000000000000000000000000000000000000000000000081526004018080602001828103825260208152602001807f4f776e61626c653a2063616c6c6572206973206e6f7420746865206f776e657281525060200191505060405180910390612be56152d9565b50505b80600e8190612bf56153aa565b50505050565b600e612c05615347565b81565b612710612c136122be565b10612c72576040517f08c379a00000000000000000000000000000000000000000000000000000000081526004018080602001828103825260258152602001806156fd6025913960400191505060405180910390612c6f6152d9565b50505b6101f4600d612c7f615347565b10612cfb576040517f08c379a000000000000000000000000000000000000000000000000000000000815260040180806020018281038252601e8152602001807f416c6c2072657365727665642068617665206265656e20636c61696d6564000081525060200191505060405180910390612cf86152d9565b50505b6000816040516020018082805190602001908083835b60208310612d345780518252602082019150602081019050602083039250612d11565b6001836020036101000a038019825116818451168082178552505050505050905001915050604051602081830303815290604052805190602001209050612d7a81614213565b612d8c57600080612d896152d9565b50505b612d95816142b7565b6001600d60008282612da5615347565b019250508190612db36153aa565b505050612dd1612dc1613be4565b6001612dcb6122be565b01613dfa565b7fa638e710b1c4d8d58ad4caedf97c2dc900ef94fef84e55b7984d715f86d9dd5f5a612dfb615572565b83604051808373ffffffffffffffffffffffffffffffffffffffff16815260200180602001828103825283818151815260200191508051906020019080838360005b83811015612e58578082015181840152602081019050612e3d565b50505050905090810190601f168015612e855780820380516001836020036101000a031916815260200191505b50935050505060405180910390a15050565b6000600a600090612ea6615347565b906101000a900473ffffffffffffffffffffffffffffffffffffffff16905090565b612ed0613be4565b73ffffffffffffffffffffffffffffffffffffffff16612eee612e97565b73ffffffffffffffffffffffffffffffffffffffff1614612f80576040517f08c379a00000000000000000000000000000000000000000000000000000000081526004018080602001828103825260208152602001807f4f776e61626c653a2063616c6c6572206973206e6f7420746865206f776e657281525060200191505060405180910390612f7d6152d9565b50505b600c612f8a615347565b811115613008576040517f08c379a000000000000000000000000000000000000000000000000000000000815260040180806020018281038252600d8152602001807f696e76616c696420696e64657800000000000000000000000000000000000000815250602001915050604051809103906130056152d9565b50505b6130106122be565b811115613071576040517f08c379a000000000000000000000000000000000000000000000000000000000815260040180806020018281038252602881526020018061579e602891396040019150506040518091039061306e6152d9565b50505b806010819061307e6153aa565b50505050565b6060600780613091615347565b600181600116156101000203166002900480601f016020809104026020016040519081016040528092919081815260200182806130cc615347565b600181600116156101000203166002900480156131385780601f106131065761010080836130f8615347565b040283529160200191613138565b820191906000526020600020905b8161311d615347565b8152906001019060200180831161311457829003601f168201915b5050505050905090565b61314a613be4565b73ffffffffffffffffffffffffffffffffffffffff168273ffffffffffffffffffffffffffffffffffffffff1614156131f4576040517f08c379a00000000000000000000000000000000000000000000000000000000081526004018080602001828103825260198152602001807f4552433732313a20617070726f766520746f2063616c6c657200000000000000815250602001915050604051809103906131f16152d9565b50505b8060056000613201613be4565b73ffffffffffffffffffffffffffffffffffffffff1673ffffffffffffffffffffffffffffffffffffffff16815260200190815260200160002060008473ffffffffffffffffffffffffffffffffffffffff1673ffffffffffffffffffffffffffffffffffffffff16815260200190815260200160002060006101000a81613287615347565b8160ff0219169083151502179061329c6153aa565b5050508173ffffffffffffffffffffffffffffffffffffffff166132be613be4565b73ffffffffffffffffffffffffffffffffffffffff167f17307eab39ab6107e8899845ad3d59bd9653f200f220920489ca2b5937696c318360405180821515815260200191505060405180910390a35050565b61332261331c613be4565b83613e2d565b613380576040517f08c379a0000000000000000000000000000000000000000000000000000000008152600401808060200182810382526031815260200180615a0f603191396040019150506040518091039061337d6152d9565b50505b61338c84848484614375565b50505050565b600b8061339d615347565b600181600116156101000203166002900480601f016020809104026020016040519081016040528092919081815260200182806133d8615347565b600181600116156101000203166002900480156134445780601f10613412576101008083613404615347565b040283529160200191613444565b820191906000526020600020905b81613429615347565b8152906001019060200180831161342057829003601f168201915b505050505081565b606061345782613bf4565b6134b5576040517f08c379a000000000000000000000000000000000000000000000000000000000815260040180806020018281038252602f81526020018061593d602f9139604001915050604051809103906134b26152d9565b50505b600060086000848152602001908152602001600020806134d3615347565b600181600116156101000203166002900480601f0160208091040260200160405190810160405280929190818152602001828061350e615347565b6001816001161561010002031660029004801561357a5780601f1061354857610100808361353a615347565b04028352916020019161357a565b820191906000526020600020905b8161355f615347565b8152906001019060200180831161355657829003601f168201915b50505050509050600061358b612732565b90506000815114156135a157819250505061373d565b6000825111156136725780826040516020018083805190602001908083835b602083106135e357805182526020820191506020810190506020830392506135c0565b6001836020036101000a03801982511681845116808217855250505050505090500182805190602001908083835b602083106136345780518252602082019150602081019050602083039250613611565b6001836020036101000a038019825116818451168082178552505050505050905001925050506040516020818303038152906040529250505061373d565b8061367c856143f0565b6040516020018083805190602001908083835b602083106136b2578051825260208201915060208101905060208303925061368f565b6001836020036101000a03801982511681845116808217855250505050505090500182805190602001908083835b6020831061370357805182526020820191506020810190506020830392506136e0565b6001836020036101000a03801982511681845116808217855250505050505090500192505050604051602081830303815290604052925050505b919050565b61374a613be4565b73ffffffffffffffffffffffffffffffffffffffff16613768612e97565b73ffffffffffffffffffffffffffffffffffffffff16146137fa576040517f08c379a00000000000000000000000000000000000000000000000000000000081526004018080602001828103825260208152602001807f4f776e61626c653a2063616c6c6572206973206e6f7420746865206f776e6572815250602001915050604051809103906137f76152d9565b50505b600c613804615347565b61381e826138106122be565b613d6990919063ffffffff16565b111561387e576040517f08c379a000000000000000000000000000000000000000000000000000000000815260040180806020018281038252602c8152602001806156d1602c91396040019150506040518091039061387b6152d9565b50505b6000600161388a6122be565b01905060005b828110156138b9576138ac5a6138a4615572565b828401613dfa565b8080600101915050613890565b7f0fdb0bb1b9a987208c0e8409f6b2182fa3a1ab837da72dc44814213e09af887f836138e36122be565b604051808381526020018281526020019250505060405180910390a1505050565b6000600560008473ffffffffffffffffffffffffffffffffffffffff1673ffffffffffffffffffffffffffffffffffffffff16815260200190815260200160002060008373ffffffffffffffffffffffffffffffffffffffff1673ffffffffffffffffffffffffffffffffffffffff16815260200190815260200160002060009061398d615347565b906101000a900460ff16905092915050565b60136000906139ac615347565b906101000a900460ff1681565b6139c1613be4565b73ffffffffffffffffffffffffffffffffffffffff166139df612e97565b73ffffffffffffffffffffffffffffffffffffffff1614613a71576040517f08c379a00000000000000000000000000000000000000000000000000000000081526004018080602001828103825260208152602001807f4f776e61626c653a2063616c6c6572206973206e6f7420746865206f776e657281525060200191505060405180910390613a6e6152d9565b50505b600073ffffffffffffffffffffffffffffffffffffffff168173ffffffffffffffffffffffffffffffffffffffff161415613b00576040517f08c379a00000000000000000000000000000000000000000000000000000000081526004018080602001828103825260268152602001806157546026913960400191505060405180910390613afd6152d9565b50505b8073ffffffffffffffffffffffffffffffffffffffff16600a600090613b24615347565b906101000a900473ffffffffffffffffffffffffffffffffffffffff1673ffffffffffffffffffffffffffffffffffffffff167f8be0079c531659141344cd1fd0a4f28419497f9722a3daafe3b4186f6b6457e060405160405180910390a380600a60006101000a81613b95615347565b8173ffffffffffffffffffffffffffffffffffffffff021916908373ffffffffffffffffffffffffffffffffffffffff16021790613bd16153aa565b50505050565b600c613be1615347565b81565b60005a613bef615572565b905090565b6000613c0a82600261454090919063ffffffff16565b9050919050565b816004600083815260200190815260200160002060006101000a81613c34615347565b8173ffffffffffffffffffffffffffffffffffffffff021916908373ffffffffffffffffffffffffffffffffffffffff16021790613c706153aa565b505050808273ffffffffffffffffffffffffffffffffffffffff16613c94836126fb565b73ffffffffffffffffffffffffffffffffffffffff167f8c5be1e5ebec7d5bd14f71427d1e84f3dd0314c0f7b2291e5b200ac8c7c3b92560405160405180910390a45050565b600080831415613ced5760009050613d63565b6000828402905082848281613cfe57fe5b0414613d5e576040517f08c379a00000000000000000000000000000000000000000000000000000000081526004018080602001828103825260218152602001806158c76021913960400191505060405180910390613d5b6152d9565b50505b809150505b92915050565b600080828401905083811015613df0576040517f08c379a000000000000000000000000000000000000000000000000000000000815260040180806020018281038252601b8152602001807f536166654d6174683a206164646974696f6e206f766572666c6f77000000000081525060200191505060405180910390613ded6152d9565b50505b8091505092915050565b613e1482826040518060200160405280600081525061455a565b5050565b6000613e26826000016145d4565b9050919050565b6000613e3882613bf4565b613e96576040517f08c379a000000000000000000000000000000000000000000000000000000000815260040180806020018281038252602c8152602001806157ee602c913960400191505060405180910390613e936152d9565b50505b6000613ea1836126fb565b90508073ffffffffffffffffffffffffffffffffffffffff168473ffffffffffffffffffffffffffffffffffffffff161480613f1057508373ffffffffffffffffffffffffffffffffffffffff16613ef88461191b565b73ffffffffffffffffffffffffffffffffffffffff16145b80613f215750613f208185613904565b5b91505092915050565b8273ffffffffffffffffffffffffffffffffffffffff16613f4a826126fb565b73ffffffffffffffffffffffffffffffffffffffff1614613fbf576040517f08c379a00000000000000000000000000000000000000000000000000000000081526004018080602001828103825260298152602001806159146029913960400191505060405180910390613fbc6152d9565b50505b600073ffffffffffffffffffffffffffffffffffffffff168273ffffffffffffffffffffffffffffffffffffffff16141561404e576040517f08c379a000000000000000000000000000000000000000000000000000000000815260040180806020018281038252602481526020018061577a602491396040019150506040518091039061404b6152d9565b50505b6140598383836145ec565b614064600082613c11565b6140b581600160008673ffffffffffffffffffffffffffffffffffffffff1673ffffffffffffffffffffffffffffffffffffffff1681526020019081526020016000206145f190919063ffffffff16565b5061410781600160008573ffffffffffffffffffffffffffffffffffffffff1673ffffffffffffffffffffffffffffffffffffffff16815260200190815260200160002061460b90919063ffffffff16565b5061411e818360026146259092919063ffffffff16565b50808273ffffffffffffffffffffffffffffffffffffffff168473ffffffffffffffffffffffffffffffffffffffff167fddf252ad1be2c89b69c2b068fc378daa952ba7f163c4a11628f55a4df523b3ef60405160405180910390a4505050565b600061418e836000018361465a565b60001c905092915050565b6000806000806141ac86600001866146fb565b915091508160001c8160001c9350935050509250929050565b80600990805190602001906141db9291906155cf565b5050565b60006141f2846000018460001b846147b9565b60001c90509392505050565b600061420c826000016148cd565b9050919050565b6000600160126000848152602001908152602001600020614232615347565b146142ae576040517f08c379a000000000000000000000000000000000000000000000000000000000815260040180806020018281038252601f8152602001807f696e76616c696420636f6465206f7220616c726561647920636c61696d656400815250602001915050604051809103906142ab6152d9565b50505b60019050919050565b6001601260008381526020019081526020016000206142d4615347565b14614350576040517f08c379a000000000000000000000000000000000000000000000000000000000815260040180806020018281038252601f8152602001807f696e76616c696420636f6465206f7220616c726561647920636c61696d6564008152506020019150506040518091039061434d6152d9565b50505b600260126000838152602001908152602001600020819061436f6153aa565b50505050565b614380848484613f2a565b61438c848484846148e5565b6143ea576040517f08c379a000000000000000000000000000000000000000000000000000000000815260040180806020018281038252603281526020018061572260329139604001915050604051809103906143e76152d9565b50505b50505050565b60606000821415614438576040518060400160405280600181526020017f3000000000000000000000000000000000000000000000000000000000000000815250905061453b565b600082905060005b60008214614462578080600101915050600a828161445a57fe5b049150614440565b60008167ffffffffffffffff81118015614484576000806144816152d9565b50505b506040519080825280601f01601f1916602001820160405280156144b75781602001600182028036833780820191505090505b50905060006001830390508593505b6000841461453357600a84816144d857fe5b0660300160f81b828280600190039350815181106144f257fe5b60200101907effffffffffffffffffffffffffffffffffffffffffffffffffffffffffffff1916908160001a905350600a848161452b57fe5b0493506144c6565b819450505050505b919050565b6000614552836000018360001b614b07565b905092915050565b6145648383614b31565b61457160008484846148e5565b6145cf576040517f08c379a000000000000000000000000000000000000000000000000000000000815260040180806020018281038252603281526020018061572260329139604001915050604051809103906145cc6152d9565b50505b505050565b600081600001806145e3615347565b90509050919050565b505050565b6000614603836000018360001b614d37565b905092915050565b600061461d836000018360001b614e76565b905092915050565b6000614651846000018460001b8473ffffffffffffffffffffffffffffffffffffffff1660001b614f0f565b90509392505050565b600081836000018061466a615347565b9050116146cb576040517f08c379a00000000000000000000000000000000000000000000000000000000081526004018080602001828103825260228152602001806156af60229139604001915050604051809103906146c86152d9565b50505b8260000182816146d9615347565b81106146e157fe5b906000526020600020016146f3615347565b905092915050565b60008082846000018061470c615347565b90501161476d576040517f08c379a00000000000000000000000000000000000000000000000000000000081526004018080602001828103825260228152602001806158a5602291396040019150506040518091039061476a6152d9565b50505b600084600001848161477d615347565b811061478557fe5b90600052602060002090600202019050806000016147a1615347565b816001016147ad615347565b92509250509250929050565b6000808460010160008581526020019081526020016000206147d9615347565b905060008114158390614890576040517f08c379a00000000000000000000000000000000000000000000000000000000081526004018080602001828103825283818151815260200191508051906020019080838360005b8381101561484c578082015181840152602081019050614831565b50505050905090810190601f1680156148795780820380516001836020036101000a031916815260200191505b50925050506040518091039061488d6152d9565b50505b508460000160018203816148a2615347565b81106148aa57fe5b90600052602060002090600202016001016148c3615347565b9150509392505050565b600081600001806148dc615347565b90509050919050565b60006149068473ffffffffffffffffffffffffffffffffffffffff16615034565b6149135760019050614aff565b6000614a7d63150b7a0260e01b614928613be4565b888787604051602401808573ffffffffffffffffffffffffffffffffffffffff1681526020018473ffffffffffffffffffffffffffffffffffffffff16815260200183815260200180602001828103825283818151815260200191508051906020019080838360005b838110156149ac578082015181840152602081019050614991565b50505050905090810190601f1680156149d95780820380516001836020036101000a031916815260200191505b5095505050505050604051602081830303815290604052907bffffffffffffffffffffffffffffffffffffffffffffffffffffffff19166020820180517bffffffffffffffffffffffffffffffffffffffffffffffffffffffff8381831617835250505050604051806060016040528060328152602001615722603291398773ffffffffffffffffffffffffffffffffffffffff1661504e9092919063ffffffff16565b90506000818060200190516020811015614a9f57600080614a9c6152d9565b50505b8101908080519060200190929190505050905063150b7a0260e01b7bffffffffffffffffffffffffffffffffffffffffffffffffffffffff1916817bffffffffffffffffffffffffffffffffffffffffffffffffffffffff191614925050505b949350505050565b600080836001016000848152602001908152602001600020614b27615347565b1415905092915050565b600073ffffffffffffffffffffffffffffffffffffffff168273ffffffffffffffffffffffffffffffffffffffff161415614bdd576040517f08c379a00000000000000000000000000000000000000000000000000000000081526004018080602001828103825260208152602001807f4552433732313a206d696e7420746f20746865207a65726f206164647265737381525060200191505060405180910390614bda6152d9565b50505b614be681613bf4565b15614c62576040517f08c379a000000000000000000000000000000000000000000000000000000000815260040180806020018281038252601c8152602001807f4552433732313a20746f6b656e20616c7265616479206d696e7465640000000081525060200191505060405180910390614c5f6152d9565b50505b614c6e600083836145ec565b614cbf81600160008573ffffffffffffffffffffffffffffffffffffffff1673ffffffffffffffffffffffffffffffffffffffff16815260200190815260200160002061460b90919063ffffffff16565b50614cd6818360026146259092919063ffffffff16565b50808273ffffffffffffffffffffffffffffffffffffffff16600073ffffffffffffffffffffffffffffffffffffffff167fddf252ad1be2c89b69c2b068fc378daa952ba7f163c4a11628f55a4df523b3ef60405160405180910390a45050565b600080836001016000848152602001908152602001600020614d57615347565b905060008114614e6a576000600182039050600060018660000180614d7a615347565b90500390506000866000018281614d8f615347565b8110614d9757fe5b90600052602060002001614da9615347565b905080876000018481614dba615347565b8110614dc257fe5b906000526020600020018190614dd66153aa565b505050600183018760010160008381526020019081526020016000208190614dfc6153aa565b5050508660000180614e0c615347565b80614e1357fe5b60019003818190600052602060002001600090614e2e6153aa565b505090614e396153aa565b5050866001016000878152602001908152602001600020600090614e5b6153aa565b50506001945050505050614e70565b60009150505b92915050565b6000614e828383615066565b614f045782600001829080600181614e98615347565b018082614ea36153aa565b5050809150506001900390600052602060002001600090919091909150614ec86153aa565b50508260000180614ed7615347565b90508360010160008481526020019081526020016000208190614ef86153aa565b50505060019050614f09565b600090505b92915050565b600080846001016000858152602001908152602001600020614f2f615347565b90506000811415614fef57846000016040518060400160405280868152602001858152509080600181614f60615347565b018082614f6b6153aa565b505080915050600190039060005260206000209060020201600090919091909150600082015181600001614f9d6153aa565b5050602082015181600101614fb06153aa565b505050508460000180614fc1615347565b90508560010160008681526020019081526020016000208190614fe26153aa565b505050600191505061502d565b82856000016001830381615001615347565b811061500957fe5b906000526020600020906002020160010181906150246153aa565b50505060009150505b9392505050565b6000808261504061540f565b905060008111915050919050565b606061505d8484600085615090565b90509392505050565b600080836001016000848152602001908152602001600020615086615347565b1415905092915050565b606061509b85615034565b615116576040517f08c379a000000000000000000000000000000000000000000000000000000000815260040180806020018281038252601d8152602001807f416464726573733a2063616c6c20746f206e6f6e2d636f6e7472616374000000815250602001915050604051809103906151136152d9565b50505b6000808673ffffffffffffffffffffffffffffffffffffffff1685876040518082805190602001908083835b602083106151655780518252602082019150602081019050602083039250615142565b6001836020036101000a03801982511681845116808217855250505050505090500191505060006040518083038185875a61519e615472565b505050505050925050503d80600081146151d4576040519150601f19603f3d011682016040523d82523d6000602084013e6151d9565b606091505b50915091506151e98282866151f5565b92505050949350505050565b60608315615205578290506152d2565b600083511115615226578251808460200161521e6152d9565b5050506152d1565b816040517f08c379a00000000000000000000000000000000000000000000000000000000081526004018080602001828103825283818151815260200191508051906020019080838360005b8381101561528d578082015181840152602081019050615272565b50505050905090810190601f1680156152ba5780820380516001836020036101000a031916815260200191505b5092505050604051809103906152ce6152d9565b50505b5b9392505050565b632a2a7adb598160e01b8152600481016020815285602082015260005b868110156153145780860151816040840101526020810190506152f6565b506020828760640184336000905af158600e01573d6000803e3d6000fd5b3d6001141558600a015760016000f35b505050565b6303daa959598160e01b8152836004820152602081602483336000905af158600e01573d6000803e3d6000fd5b3d6001141558600a015760016000f35b8051935060005b60408110156153a55760008183015260208101905061538b565b505050565b6322bd64c0598160e01b8152836004820152846024820152600081604483336000905af158600e01573d6000803e3d6000fd5b3d6001141558600a015760016000f35b60005b604081101561540a576000818301526020810190506153f0565b505050565b638435035b598160e01b8152836004820152602081602483336000905af158600e01573d6000803e3d6000fd5b3d6001141558600a015760016000f35b8051935060005b604081101561546d57600081830152602081019050615453565b505050565b6385979f76598160e01b81526154b1565b600081905081831115615494578290505b92915050565b6000819050818310156154ab578290505b92915050565b836004820152846024820152606060448201528760648201526084810160005b898110156154ec5780890151818301526020810190506154d1565b506060828a60a40184336000905af158600e01573d6000803e3d6000fd5b3d6001141558600a015760016000f35b815160408301513d6000853e8c8c82606087013350600060045af150596155418e3d61549a565b8d0161554d8187615483565b5b82811015615565576000815260208101905061554e565b50839e5050505050505050565b6373509064598160e01b8152602081600483336000905af158600e01573d6000803e3d6000fd5b3d6001141558600a015760016000f35b8051935060005b60408110156155ca576000818301526020810190506155b0565b505050565b82806155d9615347565b600181600116156101000203166002900490600052602060002090601f0160209004810192826156155760008561560e6153aa565b5050615677565b82601f1061563757805160ff191683800117856156306153aa565b5050615677565b828001600101856156466153aa565b50508215615677579182015b82811115615676578251826156656153aa565b505091602001919060010190615652565b5b5090506156849190615688565b5090565b5b808211156156aa5760008160009061569f6153aa565b505050600101615689565b509056fe456e756d657261626c655365743a20696e646578206f7574206f6620626f756e64735265736572766174696f6e20776f756c6420657863656564206d617820737570706c79206f6620426f626173416c6c20636c61696d61626c6520426f6261732068617665206265656e20636c61696d65644552433732313a207472616e7366657220746f206e6f6e20455243373231526563656976657220696d706c656d656e7465724f776e61626c653a206e6577206f776e657220697320746865207a65726f20616464726573734552433732313a207472616e7366657220746f20746865207a65726f206164647265737363616e27742073657420696e646578206265796f6e64206d6178206d696e74656420616d6f756e745745544820616d6f756e7420697320696e73756666696369656e7420666f722070757263686173654552433732313a206f70657261746f7220717565727920666f72206e6f6e6578697374656e7420746f6b656e4552433732313a20617070726f76652063616c6c6572206973206e6f74206f776e6572206e6f7220617070726f76656420666f7220616c6c4552433732313a2062616c616e636520717565727920666f7220746865207a65726f20616464726573734552433732313a206f776e657220717565727920666f72206e6f6e6578697374656e7420746f6b656e456e756d657261626c654d61703a20696e646578206f7574206f6620626f756e6473536166654d6174683a206d756c7469706c69636174696f6e206f766572666c6f774552433732313a20617070726f76656420717565727920666f72206e6f6e6578697374656e7420746f6b656e4552433732313a207472616e73666572206f6620746f6b656e2074686174206973206e6f74206f776e4552433732314d657461646174613a2055524920717565727920666f72206e6f6e6578697374656e7420746f6b656e4552433732313a20617070726f76616c20746f2063757272656e74206f776e6572507572636861736520776f756c6420657863656564206d617820737570706c79206f6620426f626173496e73756666696369656e7420616d6f756e74206f66205745544820696e20796f7572206164647265737343616e206f6e6c79206d696e74206d6178426f6261507572636861736520746f6b656e7320617420612074696d654552433732313a207472616e736665722063616c6c6572206973206e6f74206f776e6572206e6f7220617070726f766564",
  "linkReferences": {},
  "deployedLinkReferences": {}
}